:020000040800F2
:10000000F83900209D010008FF470008DD36000890
:10001000FD470008890500089D4E0008000000000B
:1000200000000000000000000000000005010008C2
:100030002706000800000000490100088948000860
:10004000B7010008B7010008B7010008B7010008B0
:10005000B7010008B7010008B7010008B7010008A0
:10006000B7010008B7010008B7010008A90500089A
:10007000B5050008C1050008CD050008D905000830
:10008000E5050008F10500084D040008854E00084C
:10009000914E0008B70100088D050008B70100085F
:1000A0007D490008A14900089549000889490008D0
:1000B000B7010008B7010008AD490008ED36000897
:1000C000E1360008B7010008B70100080148000840
:1000D000B7010008494E0008B7010008694E000842
:1000E000B7010008B7010008B7010008DFF810D019
:1000F00000F06EF90048004749560008AFF3008051
:10010000F8390020224B19680868B0E8F00F80F336
:100110000988BFF36F8F4FF0000080F311884EF015
:100120000D0E70470000000006480068006880F36C
:10013000088862B661B6BFF34F8FBFF36F8F00DFE1
:1001400000BF00BF08ED00E0EFF30980BFF36F8F41
:100150000F4B1A6820E9F00F106008B54FF05000FF
:1001600080F31188BFF34F8FBFF36F8F06F0EAFE65
:100170004FF0000080F31188BDE808401968086856
:10018000B0E8F00F80F30988BFF36F8F704700BFAE
:1001900044010020EFF305807047000006488047C7
:1001A00006480047FEE7FEE7FEE7FEE7FEE7FEE75C
:1001B000FEE7FEE7FEE7FEE735490008ED00000830
:1001C00040EA01039B0703D009E008C9121F08C0D9
:1001D000042AFAD203E011F8013B00F8013B521E59
:1001E000F9D27047D2B201E000F8012B491EFBD2D0
:1001F00070470022F6E710B513460A460446194632
:10020000FFF7F0FF204610BD421C10F8011B00292B
:10021000FBD1801A704730B504460020034600E049
:100220005B1C934203D2E05CCD5C401BF8D030BD38
:10023000F0B480EA0102D40F4200B2EB410F02D2C7
:100240000246084611464A0042D0C30DDDB2C1F352
:10025000C752AD1A202D35DAC1F3160141F4000260
:1002600004B15242C5F1200602FA06F12A411044B7
:10027000B3EBD05F23D0C4B1012DA0EBC35009DC98
:10028000F0BC4FF0004202EAC352DBB200F50000BE
:1002900000F06FB8400000F1807000EBC350A0F197
:1002A000807040EAD170490009E0490841EAC07114
:1002B000A0EBC35000F50000400800EBC350F0BCB9
:1002C00000F04EB86142012202EB4101001BF6E74B
:1002D000F0BC704781F00041AAE780F00040A7E73A
:1002E00080EA010210B502F00043400022D04A002B
:1002F0001FD0010E01EB1261C0F35600C2F356028B
:1003000040F4000042F40002A0FB022000047F3908
:10031000140400D0401C50EA124001D44000491E91
:10032000C2B20C0604EBD010401C4008802A02D058
:1003300003E0002010BD20F00100002900DA0020B9
:10034000184310BDC10F80EAE0700844CA07962325
:10035000002100F00EB896230022114600F009B8E3
:100360000029A8BF7047401C490008BF20F00100C9
:10037000704710B4B0FA80FC00FA0CF050EA0104A7
:1003800004BF10BC704749B1CCF1200421FA04F439
:1003900011FA0CF118BF012121430843A3EB0C0112
:1003A000CB1D4FEA00614FEA102042BF002010BC75
:1003B000704700EBC35010440029A4BF10BC704725
:1003C000401C490008BF20F0010010BC704700002D
:1003D000064C074D06E0E06840F0010394E8070092
:1003E00098471034AC42F6D3FFF784FEBC7F000878
:1003F000DC7F000870B58C1810F8015B15F007035E
:1004000001D110F8013B2A1106D110F8012B03E0AD
:1004100010F8016B01F8016B5B1EF9D12B0705D4B5
:100420000023521E0DD401F8013BFAE710F8013BFE
:10043000CB1A921C03E013F8015B01F8015B521E1A
:10044000F9D5A142D8D3002070BD0000014800F0CA
:1004500070B90000C401002070B5044600688168CE
:10046000C943C9071CD1816821F00101816001F0F5
:1004700009F905460FE000BF01F004F9401B02280E
:1004800009D9A06A40F01000A062E06A40F00100C3
:10049000E062012070BD20688068C043C007EBD0D7
:1004A000002070BD10B50146406A826A12F0500FFC
:1004B00005D0006A026BBDE8104008461047816A0B
:1004C00041F40071816201688968C1F342410729E2
:1004D0000CD1017B51B9816A21F480718162816AFA
:1004E000C90403D4816A41F00101816200F01EF960
:1004F00010BD10B5406A816A41F040018162C16A55
:1005000041F00401C16200F013F910BD10B5406A5A
:1005100000F00DF910BD0000F8B500260446009665
:1005200000688168C943C90728D0816841F001018A
:100530008160134813490068B0FBF1F000E0401EF1
:1005400000900028FBD101F09DF8054611E000BFA6
:1005500001F098F8401B02280BD9A06A40F0100067
:10056000A062E06A40F00100E06284F824600120AB
:10057000F8BD20688068C043C007E9D10020F8BDFD
:100580004001002040420F00FEE70000014800F05B
:10059000AEBB00003802002002480168491C01601F
:1005A0007047000020010020014800F053BE000009
:1005B000F4010020014800F04DBE0000A00300201F
:1005C000014800F047BE0000E4030020014800F0AD
:1005D00041BE000034050020014800F03BBE000091
:1005E000F0040020014800F035BE0000F8020020B1
:1005F000014800F02FBE0000B402002030B590F892
:1006000040500124AC40C56B6C6004686360436873
:10061000102B036803D099600068C26030BD9A60F7
:100620000068C16030BD704772B6FEE770470000D9
:10063000F8B50024009490F824202546012A12D011
:10064000012280F824204A681F23072A0DD2066859
:10065000776B521E02EB820293409F430B689340DC
:100660001F43776319E00220F8BD06680D2A0AD2FD
:10067000376BD21F02EB820293409F430B6893407B
:100680001F43376309E0F76A0D3A02EB8202934099
:100690009F430B6893401F43F7620A68072306686D
:1006A0000A2A0AD3F7680A3A02EB420293409F43B0
:1006B0008B6893401F43F76008E0376902EB420202
:1006C00093409F438B6893401F4337610A68102A09
:1006D00001D0112A20D1124B02689A4217D1936897
:1006E0001B0219D4936843F400039360096810292E
:1006F00012D10C490C4A0968B1FBF2F101EB8101FE
:10070000490000E0491E00910029FBD104E0816A04
:1007100041F020018162012480F824502046F8BD78
:10072000002401404001002040420F007047704704
:10073000704710B5044600684168890626D50168EF
:10074000890723D5A16AC90603D4A16A41F40071BF
:10075000A1628168C1F34241072910D1217B71B99F
:10076000416821F020014160A06A20F48070A062FD
:10077000A06AC00403D4A06A40F00100A062204631
:10078000FFF7D4FF21686FF012000860206841680D
:1007900009062ED5016849072BD5A16AC90603D4DD
:1007A000A16A41F40051A1628168C1F302310729B5
:1007B00009D04168490515D48168C1F34241072930
:1007C00010D1217B71B9416821F080014160A06A9C
:1007D00020F48050A062A06AC00503D4A06A40F053
:1007E0000100A0622046FFF721FF21686FF00C0096
:1007F00008602068416849060DD50068C0070AD026
:10080000A06A40F48030A062204600F093F821688E
:100810006FF00100086010BD2DE9F0414FF00007B6
:1008200004003D467ED0A06A002628B9E66284F81E
:100830002460204600F080F82046FFF70DFEA16AF4
:10084000C90600D420B1A06A40F01000A06269E09F
:10085000A16A21F4885141F00201A1626268E16954
:10086000237B0A4347EA43010A43A1684FF4807798
:10087000B94209D0012907D05FF0000194F814C0F3
:10088000BCF1010F02D00AE03946F7E7F3B1A36AE1
:1008900043F02003A362E36A43F00103E3622368A9
:1008A000D3F804C02CF4694C4CEA010CC3F804C022
:1008B00021688B68DFF870C003EA0C0313438B6078
:1008C000A168B9420BD0012909D00CE0DFF85CC067
:1008D000A3690CEB43330B4343F40061DFE7218A48
:1008E0000D05A5F580152168CB6A23F470032B4311
:1008F000CB62216889680E4B1940914208D1E662AB
:10090000A16A21F0020141F00101A162BDE8F0817C
:10091000A06A20F0020040F01000A062E06A40F0FF
:100920000100E0620120F1E7FDF7E1FF00E0FFFFD9
:10093000FE0E1FFF7047000070B586B0002605460A
:10094000009601960296039600681E49884237D1A8
:100950001D49886940F400708861886900F400705E
:100960000490886940F0040088618869694600F055
:10097000040004900F20009003200190134800F021
:100980008BFD144C1248C4E900068020C4E90260C3
:1009900040002061800060612020A0610002E061D1
:1009A000204600F001FD08B1FFF73EFE2C62002258
:1009B00005211220656201F0ABFC122001F09AFCC7
:1009C00006B070BD00240140001002400008014044
:1009D00008000240F40100202DE9F0478946044652
:1009E0003B4900683B4F0E1D9046884201D0B842FB
:1009F00007D1306810F4702F03D001252846BDE8D8
:100A0000F08794F8240001280CD0012084F82400F9
:100A10002046FFF781FD05004FF0000004D084F868
:100A20002400EBE70220EAE7A16A40F60162914365
:100A300041F48071A1622168B94218D1326812F480
:100A4000702F14D0A16A41F48011A1623168490568
:100A500005D5A16A21F4005141F48051A162A16A37
:100A6000C9040AD5E16A21F00601E16206E0A26A42
:100A700022F48012A2624968E9E7E06284F8240067
:100A8000216A15488862216A1448C862216A14489C
:100A9000086321686FF0020008602068816841F4F3
:100AA00080718160216843464A464C31206A00F0DB
:100AB000A9FC20688168C1F342410729816803D0FD
:100AC00041F48011816099E741F4A001FAE7000048
:100AD0000024014000280140A50400080D0500087D
:100AE000F304000890F82020012A07D0022A05D03C
:100AF000416A41F4802141620120704700684269E7
:100B00000A4342610020704710B590F82030026817
:100B1000012B07D0022B05D0416A41F480214162AC
:100B2000012010BDD2F8000240F00100C2F800021E
:100B3000087D00F01F0301209840D2F81C32834347
:100B4000C2F81C32CB69B3B9D2F80C328343C2F875
:100B50000C328C894B6864F31F434C6902EBC4046C
:100B6000C4F840320C890B6864F31F434C6902EBF4
:100B7000C404C4F84432CB69012B16D1D2F80C322C
:100B80000343C2F80C320C884B6864F31F434C6972
:100B900002EBC404C4F840320C89CB6864F31F43F1
:100BA0004C6902EBC404C4F844328B69002BD2F8C0
:100BB00004320FD053EA0003C2F804320B69002B51
:100BC000D2F8143208D00343C2F81432096A01295A
:100BD00004D008E08343EFE78343F5E7D2F81C1223
:100BE0000143C2F81C12D2F8000220F00100C2F842
:100BF0000002002010BD10B503F04AFCBDE8104013
:100C0000002004F0E9B930B590F82040012C05D05F
:100C1000022C03D0416A41F480215DE00468002980
:100C200055D02469A40754D04FF4D874056804EB58
:100C300001142D5915F00405956005682D594ED005
:100C4000ED08556005682C5904F00204D4604FF497
:100C5000DA74056804EB01142D5905F00F051561D0
:100C600005682D59C5F30725956105682C59240C95
:100C700054614FF4DC72046802EB0112A4581C703A
:100C80000468A458240A5C700468A458240C9C705E
:100C90000468A258120EDA704FF4DE72046802EB98
:100CA0000112A4581C710468A458240A5C710468D9
:100CB000A458240C9C710468A258120EDA710068C2
:100CC00081B1016941F020010161002030BDE4687B
:100CD000A8E7416A41F400114162012030BD6D0D69
:100CE0001560AFE7C16841F02001C160EDE72DE973
:100CF000F05F0546006800244669D0F804908768D4
:100D0000D0F80CB0D0F810A0D0F81880F10748D077
:100D1000F90714D001218160B80703D5284600F0F7
:100D200020FA0CE0780702D54FF4006407E038079A
:100D300002D54FF4805402E0284600F011FAF8057D
:100D400016D529684FF480708860B80503D5284609
:100D500000F009FA0CE0780502D544F4005407E0ED
:100D6000380502D544F4804402E0284600F0FAF940
:100D7000F80316D529684FF480308860B80303D58E
:100D8000284600F0F2F90CE0780302D544F4004460
:100D900007E0380302D544F4803402E0284600F02E
:100DA000E3F9300707D55FEACB6004D52968102046
:100DB00044F40074C86070074FF0080707D55FEA75
:100DC0000B7004D52868C760284600F069F9B007A1
:100DD00006D52868C068800702D0284600F062F96E
:100DE000700607D55FEACA6004D52968102044F46C
:100DF00080640861B00607D55FEA0A7004D52868E8
:100E00000761284600F07CF9F00606D528680069DD
:100E1000800702D0284600F074F9B00308D55FEAD5
:100E2000C96005D5296810204860284600F06AF995
:100E3000F00307D55FEA097004D5286847602846A3
:100E400000F094F9300446D55FEA497040D5F005CA
:100E500004D55FEAC87001D044F00104B00504D5A0
:100E60005FEA887001D544F00204700504D55FEA9A
:100E7000487001D544F00404300529D518F0700FEE
:100E800026D008F07000402815D006DC102809D0C4
:100E900020280AD0302816D10AE050280ED0602829
:100EA00011D10EE044F008040DE044F010040AE013
:100EB00044F0200407E044F0400404E044F08004DF
:100EC00001E044F480742868816921F07001816137
:100ED000296804204860002C05D0686A20436862B5
:100EE0002846FFF788FEBDE8F09F70B5040003D0E8
:100EF00094F8200010B104E0012070BD204600F0FD
:100F000081F82068016821F00201016000F0BAFB5D
:100F10000546052604E000F0B5FB401B0A2811D861
:100F2000206840688007F6D42068016841F001011C
:100F3000016000F0A7FB05460BE000F0A3FB401B9F
:100F40000A2806D9606A40F40030606284F82060A4
:100F5000D2E720684068C007EFD0207E01282068D3
:100F600001683DD021F080010160607E0128206889
:100F7000016838D021F040010160A07E012820687E
:100F8000016833D021F020010160E07E0128206853
:100F900001682ED041F010010160207F01282068F7
:100FA000016829D021F008010160607F01282068D4
:100FB000016824D021F004010160D4E90201084352
:100FC000D4E90412114308436168491E08432168AB
:100FD000C86100206062012084F82000002070BDFC
:100FE00041F08001C0E741F04001C5E741F0200138
:100FF000CAE721F01001CFE741F00801D4E741F042
:101000000401D9E710B586B0002100910191029149
:10101000039100681F4988423AD11F48C16941F0D5
:101020000071C161C16901F000710491816941F0F1
:10103000040181618069194C00F0040004904FF4B0
:10104000006000906946204600F026FAA014009047
:1010500002200190032003906946204600F01CFA0C
:1010600000220521132001F053F9132001F042F969
:1010700000220521142001F04BF9142001F03AF967
:1010800000220521162001F043F9162001F032F963
:1010900006B010BD0064004000100240000801408E
:1010A0007047000038B5044603F0B2FFFF2820D097
:1010B0000021009100EB40010E4800EBC10000212F
:1010C000C36842682046FFF79EFD0B480068002871
:1010D0000FD0694606F0B0F900280AD00098002821
:1010E00007D006494FF080500860BFF34F8FBFF321
:1010F0006F8F38BDB4000020F400002004ED00E044
:10110000704770477047000070B5044690F82000A3
:10111000012804D0606A40F40020606218E00220D8
:1011200084F820002068016821F00101016000F0CE
:10113000A9FA05460EE000BF00F0A4FA401B0A28F9
:1011400008D9606A40F400306062052084F820000D
:10115000012070BD20684068C007EDD1606270BD9D
:10116000704770477047704770477047704710B5B9
:1011700090F821100022022905D00421816380F813
:101180002020012010BD01680B6823F00E030B60C6
:1011900001680B6823F001030B6090F84030C46BCA
:1011A000012101FA03F3636080F8211080F8202008
:1011B000104610BD10B590F821100024022903D06C
:1011C0000421816301243DE001680A6822F00E02D7
:1011D0000A6001680A6822F001020A601A4A01687E
:1011E000914201D1012121E0174A1432914201D1EB
:1011F00010211BE0144A2832914201D1891515E0D3
:10120000114A3C32914201D189140FE00E4A50320A
:10121000914202D14FF4803108E00B4A643291428E
:1012200002D14FF4801101E04FF08071064A083A74
:101230005160012180F82110002180F82010416BBD
:1012400001B18847204610BD0800024090F82100F7
:10125000704700002DE9F05FC16B0C6801680B68F6
:10126000D0F840C0042202FA0CF2494DDFF824A164
:10127000494E4A4FDFF828B1DFF828E122422CD04E
:101280005A072AD50A68920603D40A6822F0040293
:101290000A600168A94201D1042219E0514501D137
:1012A000402215E0B14202D14FF4806210E0B94211
:1012B00002D14FF480420BE0594502D14FF4802215
:1012C00006E0714502D14FF4800201E04FF08062E8
:1012D0002F4908394A60C16A3BE04FF0020808FA1A
:1012E0000CF818EA040F4FF000094FF0010235D056
:1012F0005FEA837832D50B689B0605D40B6823F030
:101300000A030B6080F821200168A94201D1022262
:1013100019E0514501D1202215E0B14202D14FF42C
:10132000007210E0B94202D14FF400520BE059456F
:1013300002D14FF4003206E0714502D14FF40012A1
:1013400001E04FF00072124908394A6080F820909D
:10135000816A00291AD0BDE8F05F0847082505FA20
:101360000CF5254212D01B0710D50B6823F00E0395
:101370000B6090F84010C36B02FA01F15960826370
:1013800080F8212080F82090016BE2E7BDE8F09F13
:10139000080002401C0002403000024044000240AD
:1013A000580002406C00024030B528B308C8134909
:1013B00014221944B1FBF2F18900C1631049816321
:1013C000022141771A6843F6F0718A43D0E900148C
:1013D0002143D0E902452C43214304692143446958
:1013E0002143846921431143196000214163012293
:1013F00042770177084630BD012030BDF8FFFDBFC0
:101400000000024070B5044690F820000025012835
:101410000CD0012084F8200094F821600020012ED7
:1014200006D084F820000225284670BD022070BD39
:10143000022684F82160A0632068066826F0010671
:1014400006602046FFF7DAF8E06A002820680168A5
:1014500002D041F00E0106E021F004010160206895
:10146000016841F00A0101602068016841F0010152
:101470000160D9E770B5044600F004F90546601C28
:1014800002D004480078044400F0FCF8401BA0425D
:10149000FAD370BD340100202DE9F84FDFF8B89180
:1014A000002409F1040A0AF1040B23460F270BF16B
:1014B000040EC9E00125A5402A40AA427DD1674E0D
:1014C000D1F804C0ACEB0608B44532D014DCBCF152
:1014D000030F3AD009DCBCF1000F2AD0BCF1010F98
:1014E0001CD0BCF1020F31D11DE0BCF1110F17D09F
:1014F000BCF1120F2AD119E0B8F5881F19D006DC0B
:10150000B8F5803F15D0B8F5801F1FD111E0B8F5B0
:10151000001F0ED0B8F5041F18D10AE0CB6815E003
:10152000CB681B1D12E0CB6808330FE0CB680C338F
:101530000CE08B682BB1012B4FF0080303D0456101
:1015400004E0042302E0056100E00023FF2A01D843
:10155000064601E000F104064FEA840501D9A5F131
:101560002005D6F8008007FA05FC28EA0C0803FAE3
:1015700005F548EA0508C6F800804D68ED0062D51B
:10158000374DAE6946F00106AE61AD6924F0030641
:1015900005F001050095334D06EB050CDCF808500D
:1015A000A607360F07FA06F825EA0805DFF8B8801F
:1015B000404503D14FF0000817E044E0DFF8AC806D
:1015C000404502D14FF001080FE0DFF8A48040450C
:1015D00002D14FF0020808E0DFF89880404502D1C0
:1015E0004FF0030801E04FF0040808FA06F848EA53
:1015F0000508CCF808804D68D9F80060ED034D4629
:1016000001D5164300E096432E604D68DAF800607D
:10161000AD03554601D5164300E096432E604D6854
:10162000DBF80060ED025D4601D5164300E096430D
:101630002E604D68DEF80060AD02754601D5164398
:1016400000E096432E60641C0D682A46E5407FF456
:1016500031AFBDE8F88F0000000401400000111018
:10166000001002400000014000080140000C014051
:1016700000100140001401400AB1016170470904E3
:10168000FBE700000148806870470000340100203B
:10169000704770472DE9F041016804464A694E6879
:1016A00090F83E000025D743FA050BD4F243D2054B
:1016B00008D46FF4807201254A6121680A6842F4F7
:1016C00000420A60B90508D4F143C90505D422686F
:1016D0006FF4007145F002055161790525D4F1439D
:1016E000C90522D4638D94F83D10226B202808D1BF
:1016F0003BB9212910D029290ED0282901D1212A2E
:101700000AD022686FF48061516145F00405102809
:1017100006D0402804D008E0204602F0B1FC04E0E6
:101720002068016841F400710160380508D4F04375
:10173000C00505D421686FF4006045F008054861D4
:10174000002D07D0206C284320642046BDE8F041DE
:1017500002F0D0B8BDE8F0812DE9F0410268002424
:101760005168C76A90F83E5090F83D60102D1CD02B
:10177000402D1AD0036C002B7ED053694FF0280502
:10178000DB439F0779D4CF43BF0576D4016C01B109
:10179000946990F83D3000219D430B466ED0C91EE0
:1017A000516180F83C30BDE8F081946953694FF491
:1017B0002A0CDB435FEAC37E4FF02A4604D067451C
:1017C000F1D0B742EFD010E0CF43BF050DD4C16ACE
:1017D000614501D1012103E0C16AB14201D1082173
:1017E000C162BDE8F04102F0B5BB1E0716D4CE437E
:1017F000B60513D4416CC9B21161416B11B9826B4A
:10180000002AD0D0896A19B9816B896A0029CAD0A7
:101810000068416841F400614160C4E79E0706D456
:10182000CE43B60503D4BDE8F04102F0E7BAE44385
:10183000526864074FEA02521BD4002AB3DB1A062F
:1018400008D4CA43520505D45A0705D5BDE8F0416E
:1018500002F078BA5A07A6D4C9438905A3D4102D3B
:1018600003D0BDE8F04102F0BBBBBDE8F04102F09F
:101870002FBA002A97DB02E015E029E015E05A06AE
:1018800008D4CA43520505D45A0705D5BDE8F0412E
:1018900002F05CB95A0786D4C943890583D4BDE8F0
:1018A000F04102F0EAB8946967E7556825F480656D
:1018B0005560E243540700D50121120601D5828903
:1018C00000E0028B80F83C3092B2FFF7E2FE6AE75C
:1018D000DC0606D4CC43A40503D4BDE8F04102F0F5
:1018E00011BC212E27D0292E25D05C0655D4CC43FF
:1018F000640552D45B0752D590F83D10438D002B00
:101900008BD01269436A1A70426A521C4262428D3D
:10191000521E4285428D002AD9D12A29D7D1016889
:101920004A6822F480624A602221016380F83D50B7
:1019300000F036FC37E71C0623D4CC43640520D4E2
:101940005B0720D590F83D10438D002BBFD0436A34
:101950001B781361426A521C4262428D521E4285BC
:10196000428D002AB3D12929B1D101684A6822F4F5
:1019700080624A602121016380F83D5000F011FC33
:1019800011E75B07A3D4C9438905A0D4418D002981
:101990009DD0416A097811610AE05B0797D4C94379
:1019A000890594D4418D002991D01169426A117042
:1019B000416A491C4162418D491E4185F3E67047E9
:1019C00090F83D007047000070B5040025D094F8F1
:1019D0003D00002520B984F83C50204600F064FB0F
:1019E000242084F83D002068016821F00101016095
:1019F0002068016841F4004101602068016821F419
:101A00000041016000F0E2FD4D4A6168914201D859
:101A10004C4900E04C49884201D2012070BD4B493D
:101A20002368B0FBF1F15E6826F03F060E435E606E
:101A30006368934206D94FF4967359434FF47A730F
:101A4000B1FBF3F12368491C1E6A26F03F063143BF
:101A500019626168914210D84900401EB0FBF1F252
:101A6000521CC2F30B02042A01D2042022E0B0FB74
:101A7000F1F0401CC0F30B001CE0A268F2B301EBD4
:101A8000C10303EB0116431EB3FBF6F35B1C43F4E7
:101A900080431B0549D092B301EBC10202EB011157
:101AA000401EB0FBF1F0401CC0F30B0040F480403E
:101AB00040F400402168CA694CF6FF739A43104312
:101AC000C861D4E9071001432068026822F0C0020F
:101AD00011430160D4E9030101432068826848F2A0
:101AE000FF339A4311438160D4E90501084321681B
:101AF000CA6822F0FF021043C86001E00EE016E061
:101B00002068016841F0010101602564202084F80B
:101B10003D00256384F83E50002070BD01EB410676
:101B2000431EB3FBF6F35B1CB3E70120C2E701EBF6
:101B30004101401EB0FBF1F0401CC0F30B00B7E7C1
:101B4000A086010080841E0000093D0040420F0075
:101B50007047704700B503F04BFDFF2807D0044ADB
:101B600000EB800002EBC000002180F8261000BDD1
:101B70008C000020F8B500250446009590F83D0043
:101B800020287AD1474846F2A8160068B0FBF6F044
:101B900000EBC00606EB0010202600900098401EC7
:101BA000009010D020688069C0438007F6D594F873
:101BB0003C00012874D0012084F83C0020680768AC
:101BC000FF070AD00DE044F8305F6673A573206903
:101BD00040F020002061257335E0076847F00107D9
:101BE00007602068076827F400670760222084F8F0
:101BF0003D00102084F83E00256462626385608D9C
:101C000020852948E0626164208DB8B3A16B274824
:101C10008862A16B26480863A06BC562A06B456310
:101C20002168238D1031626AA06BFFF7EBFB60B176
:101C300084F83D6084F83E5054F8400F40F01000A6
:101C400044F8040925700120F8BD2068016841F4BA
:101C5000806101602068016841F48071016084F84E
:101C60003C502068416841F44071416020684168FF
:101C700041F4006141600020F8BD11E0FFE72068F9
:101C8000016841F4806101602068016841F480715D
:101C9000016084F83C502068416841F4E061E9E764
:101CA0000220E9E7400100200000FFFFEB370008B9
:101CB000B537000878B50024009490F83D50202DE9
:101CC00055D12C4D46F2A8162D68B5FBF6F505EB5F
:101CD000C50606EB051500956D1E009506D0056836
:101CE000AD69ED43AD070DD4009DF5E740F8304FE9
:101CF000202141738473016941F020010161047363
:101D0000012078BD90F83C50012D30D0012580F89D
:101D10003C5005682E68F60703D12E6846F0010690
:101D20002E6005682E6826F400662E60222580F855
:101D30003D50102580F83E50046442624385428D38
:101D400002850D4AC262416401680A6842F48062F9
:101D50000A6001680A6842F480720A6080F83C40B8
:101D60000068416841F4E0614160002078BD0220D4
:101D700078BD0000400100200000FFFF2DE9F84F72
:101D80001F4690468A460446DDF82890FFF77AFC05
:101D9000054694F83D0020287FD1192301224049AF
:101DA0002046009502F082FA002876D194F83C0093
:101DB000012872D0012084F83C0020680168C9071E
:101DC00003D1016841F0010101602068016821F43C
:101DD00000610160212084F83D00102084F83E005D
:101DE00000262664C4F824806785608D20852D48F0
:101DF000E0622B464A465146204601F01BFF90B94F
:101E0000206841698069009036E02A4649462046AC
:101E100002F0CBFA50B1206C042804D1206801688C
:101E200041F4007101600120BDE8F88F606A21680B
:101E300000780861606A401C6062618D491E61859E
:101E4000218D491E89B2218522685369DB435B07D6
:101E50000BD451B100781061606A401C6062608DE3
:101E6000401E6085208D401E20852A46494620461A
:101E700002F0F6F90028CED1208D0028C5D154F803
:101E80003D0B016841F400710160202004F81E0937
:101E9000E67766770020C7E7FFE70220C4E7000087
:101EA000020010000000FFFFF8B500250446009571
:101EB00090F83D0020287AD1474846F2A8160068DD
:101EC000B0FBF6F000EBC00606EB001020260090F9
:101ED0000098401E009010D020688069C0438007A1
:101EE000F6D594F83C00012874D0012084F83C0019
:101EF00020680768FF070AD00DE044F8305F66737A
:101F0000A573206940F020002061257335E0076843
:101F100047F0010707602068076827F4006707603B
:101F2000212084F83D00102084F83E002564626280
:101F30006385608D20852948E0626164208DB8B397
:101F4000616B27488862616B26480863606BC562D5
:101F5000606B45632268238D1032616A606BFFF706
:101F600051FA60B184F83D6084F83E5054F8400F57
:101F700040F0100044F8040925700120F8BD2068E5
:101F8000016841F4806101602068016841F480715A
:101F9000016084F83C502068416841F44071416020
:101FA0002068416841F4006141600020F8BD11E003
:101FB000FFE72068016841F48061016020680168E2
:101FC00041F48071016084F83C502068416841F41C
:101FD000E061E9E70220E9E7400100200000FFFF9F
:101FE000EB370008B537000878B50024009490F866
:101FF0003D50202D50D1294D46F2A8162D68B5FB35
:10200000F6F505EBC50606EB051500956D1E00956A
:1020100006D00568AD69ED43AD070DD4009DF5E729
:1020200040F8304F202141738473016941F0200151
:1020300001610473012078BD90F83C50012D2BD034
:10204000012580F83C5005682E68F60703D12E68FC
:1020500046F001062E6005682E6826F400662E60A4
:10206000212580F83D50102580F83E5004644262DE
:102070004385428D02850A4AC262416401680A684A
:1020800042F480720A6080F83C400068416841F484
:10209000E0614160002078BD022078BD4001002051
:1020A0000000FFFF704770472DE9F04186B0002423
:1020B00006460094019402940394006832498842D1
:1020C0005ED1324DA86940F00800A861A869694650
:1020D00000F0080004904FF440700090122001902E
:1020E000032003902A48FFF7D7F92A48416841F0B6
:1020F000E06141F002014160E86940F40010E861EC
:10210000E869264D00F4001004902348C5E9000456
:102110004FF08008C5E902482C614FF400576C610C
:10212000C5E906472846FFF73FF908B1FEF77CFAF4
:10213000B5636E62194D18484435143801C5102036
:10214000A5E81101154845F8104944306C61C5E90E
:102150000647FFF729F908B1FEF766FA7563002212
:1021600005211F206E6200F0D3F81F2000F0C2F896
:1021700000220521202000F0CBF8202000F0BAF842
:1021800006B0BDE8F081000000540040001002409D
:10219000000C01400000014080000240B402002019
:1021A0007047704770B5040011D021684CF6CC40E0
:1021B0000860216845F255500860D4E9000141608B
:1021C0002168A0688860FFF75DFA054609E00120F4
:1021D00070BD00BFFFF756FA401B262801D9032027
:1021E00070BD2068C0680028F4D121684AF6AA2092
:1021F0000860002070BD00684AF6AA210160002036
:10220000704700000248816802781144816070477D
:1022100034010020074810B5016841F01001016049
:10222000032000F095F8002000F006F800F03EF8DA
:10223000002010BD0020024000B5014687B00022FA
:102240001E2000F065F81E2000F054F81348C16904
:1022500041F00401C161C06905A900F004000690C5
:10226000684600F093F900F0B1F90D494000B0FB69
:10227000F1F10D480B4A491E0260416040F2E7321D
:102280000021C0E90321816000F024FD10B101208C
:1022900007B000BD044800F081FDF9E700100240DE
:1022A00040420F0000080040780500200F4808B5A4
:1022B000816941F001018161816901F001010091B1
:1022C000C16941F08051C161C069002200F08050B5
:1022D00000900F21901E00F01BF80548416821F086
:1022E000E06141F00071416008BD00000010024053
:1022F00000000140002809DB00F01F02012191408D
:102300004009800000F1E020C0F800117047000093
:10231000F0B40E4B1B680C46C3F30223C3F1070550
:10232000042D00D90425191D072901D2002300E03E
:10233000DB1E012606FA05F1491E214099409E4008
:10234000761E16403143F0BC02F0A9BD0CED00E052
:10235000064900F0070208684FF6FF03184040EAFC
:102360000220034A10430860704700000CED00E0B3
:102370000000FA052DE9F84305460078354CC00702
:1023800054D0E0690026C00008D4E06940F08050D5
:10239000E061E069012600F0805000902E4801685D
:1023A000C90512D40168804641F480710160FFF7CD
:1023B00069F9074605E000BFFFF764F9C01B642810
:1023C00023D8D8F80000C005F6D5206A10F4407074
:1023D00021D0A98801F4407181421CD0206A1F4994
:1023E000012220F440700A6000220A602062C007C7
:1023F00011D0FFF747F9074641F2883808E000BFDF
:10240000FFF740F9C11B414502D90320BDE8F8831D
:10241000206A8007F4D5206A696820F44070084378
:1024200020621EB1E06920F08050E06128788007CA
:1024300005D56068A96820F44040084360602878AA
:10244000C00605D56068E96820F480000843606034
:102450000020DBE7001002400070004040044242D0
:102460002DE9F0470F46050061D0434E306800F07B
:102470000700B84209D2306820F0070038433060C6
:10248000306800F00700B84251D128683B4C810702
:1024900012D5400703D5606840F4E060606028789A
:1024A000000703D5606840F4605060606068A96808
:1024B00020F0F000084360602878C00728D06868E2
:1024C000012810D02168022810D0890700292EDAAF
:1024D000616821F0030101436160FFF7D3F8804692
:1024E00041F288390DE021688903EFE78901EDE7C2
:1024F000FFF7C8F8A0EB0801494502D90320BDE861
:10250000F0876068696800F00C00B0EB810FEFD1D4
:10251000306800F00700B8420BD9306820F007009F
:1025200038433060306800F00700B84201D0012025
:10253000E5E72878400705D56068E96820F4E060A1
:10254000084360602878000706D56068296920F490
:10255000605040EAC100606000F058F86168084AC5
:10256000C1F30311515CC840064908600648006881
:10257000FFF762FE0020C2E7002002400010024088
:10258000407F000840010020380100200F22026037
:102590000C4A536803F003034360536803F0F003ED
:1025A0008360536803F4E063C36052684FF4E063F0
:1025B00003EAD20202610448006800F007000860E4
:1025C0007047000000100240002002400448054906
:1025D00000684968044AC1F30221515CC840704751
:1025E0004001002000100240507F000804480549C7
:1025F00000684968044AC1F3C221515CC840704771
:102600004001002000100240507F000812A185B058
:102610000FC98DE80F0014A0144A00680490516897
:10262000134801F00C03042B10D0082B0ED1C1F37A
:102630008343C9031DF803000AD5516804AAC1F3F6
:102640004041515C0A4A5043B0FBF1F005B070477D
:1026500008494843FAE70000020304050607080991
:102660000A0B0C0D0E0F10100102000000100240AA
:1026700000127A0000093D002DE9F84F040070D0E7
:102680002078C04DC00749D06868C0F38100012898
:1026900007D06868C0F38100022809D16868C003C8
:1026A00006D52868800339D560680028E7D035E072
:1026B0006068B0F5803F0BD010B1B0F5A02F11D0FD
:1026C000286820F480302860286820F4802002E008
:1026D000286840F480302860606890B1FEF7D2FF2F
:1026E00006460AE0286840F480202860F0E700BF32
:1026F000FEF7C8FF801B642873D828688003F7D5CD
:102700000CE0FEF7BFFF064605E000BFFEF7BAFF8C
:10271000801B6428F0D828688003F7D420789A4E6C
:1027200080074FF001094FF0000839D5686810F0B4
:102730000C0F07D06868C0F38100022809D16868CF
:10274000C00306D42868800714D52069012808D161
:1027500010E02069B0B1C6F80090FEF793FF07467D
:1027600005E00AE1FEF78EFFC01B0228C4D82868E6
:102770008007F7D52868616920F0F80040EAC100B9
:1027800028600DE0C6F80080FEF77CFF074604E0F5
:10279000FEF778FFC01B022823D828688007F7D4EB
:1027A000207800072CD57948A169D9B1C0F80090EC
:1027B000FEF768FF074604E0FEF764FFC01B02282F
:1027C0000FD8686A8007F7D571484FF4FA5100684E
:1027D000B0FBF1F0009000BF0098411E0091FAD2CA
:1027E0000EE080E0C0F80080FEF74CFF074604E0F2
:1027F000FEF748FFC01B022875D8686A8007F7D427
:102800002078400760D5E8690027C00008D4E8694F
:1028100040F08050E861E869012700F080500090A6
:102820005C480168C90513D40168834641F480718E
:102830000160FEF727FF824606E000BFFEF722FF99
:10284000A0EB0A0064284ED8DBF80000C005F5D5DF
:10285000E06801280AD008B1052813D0286A20F0C2
:1028600001002862286A20F0040002E0286A40F093
:1028700001002862E06841F2883B98B1FEF702FF50
:1028800082460BE0286A40F004002862EEE700BFB1
:10289000FEF7F8FEA0EB0A0159455AD8286A8007CE
:1028A000F6D50CE0FEF7EEFE824605E0FEF7EAFE06
:1028B000A0EB0A0159454CD8286A8007F6D41FB10D
:1028C000E86920F08050E861E06988B36968C1F385
:1028D0008101022944D00228C6F8608004D0FEF7A6
:1028E000D1FE044638E034E0FEF7CCFE074604E0B3
:1028F000FEF7C8FEC01B02282BD828688001F7D439
:10290000206AB0F5803F05D16868A16820F40030E6
:1029100008436860D4E908010843696821F4741128
:1029200008436860C6F86090FEF7ACFE044606E017
:1029300025E000BFFEF7A6FE001B022809D8286884
:102940008001F7D51BE000BFFEF79CFE001B0228AC
:1029500002D90320BDE8F88F28688001F4D40EE086
:102960000128F7D06868226A00F48031914204D1CE
:10297000616A00F47010884201D00120EAE700206B
:10298000E8E700000010024000004242800442429A
:1029900040010020007000407047000038B5044638
:1029A000006842688168C9434B0606D5CB0704D14D
:1029B000D3435B0601D4216C05E08B0708D4D343D5
:1029C0001B0605D4616C01B02046BDE830400847C5
:1029D0008B0601D54B0646D4D3439B0643D44B0606
:1029E0000AD494F85130032B3ED0636D43F00403B6
:1029F0006365C36883680093890609D4616D41F0FB
:102A00000101616581680091016821F04001016068
:102A1000606D002827D02068416821F0E001416006
:102A2000012084F85100900722D02068416821F0ED
:102A300003014160104DE06C40B14563E06CFEF76E
:102A4000B9FB18B1606D40F040006065A06C0028D3
:102A500009D04563A06CFEF7ADFB002803D0606D84
:102A600040F04000606538BDC1688068009038BDA6
:102A70002046FFF791FF38BD0D48000870B50400EF
:102A800009D0606A002540B125616561A56294F8AE
:102A9000510040B10CE0012070BD6068B0F5827F4C
:102AA000F4D0E561F2E784F85050204600F040F899
:102AB000022084F851002068016821F04001016083
:102AC000A088218900F4827001F404410843A1899F
:102AD00001F400610843217C01F002010843217DDB
:102AE00001F001010843218B01F400710843217FAB
:102AF00001F03801084394F8201001F080010843E8
:102B0000218D01F40051084321680860A069042167
:102B100001EA1040216848602068C16921F4006121
:102B2000C1616565012084F85100002070BD00007E
:102B30002DE9F04186B000240646009401940294E9
:102B4000039400682E49884257D12E48816941F488
:102B500080518161816901F480510491816941F062
:102B6000040181618069284D00F004000490A020D8
:102B70000090022001900320039069462846FEF74A
:102B80008BFC4020CDE90004694628460294FEF7FC
:102B900083FC1F4D1D484FF08008C5E90004C5E9BE
:102BA00002482C614FF400576C61C5E9064728467E
:102BB000FEF7FAFB08B1FDF737FDF5646E62144DC0
:102BC00012484435143001C51020A5E81101104801
:102BD00045F8104944306C61C5E90647FEF7E4FB4F
:102BE00008B1FDF721FDB5640022052123206E62A6
:102BF000FFF78EFB2320FFF77DFB06B0BDE8F081D9
:102C00000030014000100240000801401C0002405A
:102C1000A00300207047704710B590F83C20012AAF
:102C200022D0012280F83C20CA688C6822F44072CD
:102C300022434C6822F4806222430C6822F4006232
:102C400022430C6922F4805222434C6922F4005240
:102C50002243C969002322F480420A4301684A647E
:102C600080F83C30002010BD022010BD70B590F8F7
:102C70003C20012A26D0012480F83C40022280F822
:102C80003D2003685A689D6822F070060A68324346
:102C90005A600D4B02689A4208D0B2F1804F05D0BD
:102CA0000A4B9A4202D00A4B9A4204D1496825F055
:102CB00080031943916080F83D40002180F83C106A
:102CC000084670BD022070BD002C01400004004089
:102CD0000008004010B5040003D094F83D0010B186
:102CE00007E0012010BD002084F83C00204600F0E1
:102CF0001FF8022084F83D00211D206801F05CFED1
:102D0000012084F8460084F83E0084F83F0084F8EF
:102D1000400084F8410084F8420084F8430084F8BD
:102D2000440084F8450084F83D00002010BD0000F8
:102D300008B50068174988422AD11748816941F4CB
:102D4000006181618069002200F40060009005212B
:102D50001820FFF7DDFA1820FFF7CCFA0022052132
:102D60001920FFF7D5FA1920FFF7C4FA0022052130
:102D70001A20FFF7CDFA1A20FFF7BCFA002205212E
:102D80001B20FFF7C5FABDE808401B20FFF7B2BAC9
:102D900008BD0000002C01400010024090F83D10DA
:102DA000012901D001207047022180F83D100168FF
:102DB000CA6842F00102CA6000680B49884208D024
:102DC000B0F1804F05D00949884202D008498842B5
:102DD00004D1816801F00701062903D0016841F0A0
:102DE0000101016000207047002C014000040040F8
:102DF0000008004070B5044690F83C00012817D048
:102E0000012584F83C50022084F83D002068826847
:102E100022F0770222F47F4282600868502830D086
:102E20000DDC20284DD005DC98B310283BD148E0BC
:102E3000022070BD302844D0402834D139E06028C9
:102E400028D0702806D0B0F5805F2CD0B0F5005F98
:102E500029D10AE0CB68D1E90121206801F0E2FD27
:102E60002068816841F0770109E0CB68D1E9012150
:102E7000206801F0D7FD2068816841F480418160BD
:102E800011E0CA684968206801F080FE502120687E
:102E900007E016E0CA684968206801F088FE6021F2
:102EA000206801F0C9FD84F83D50002084F83C0002
:102EB00070BDCA684968206801F068FE402120683A
:102EC000EFE7226801461046EBE7704770B504460D
:102ED000006801694FF00005C943890715D4C1682E
:102EE000C943890711D4E91E0161012020772068B8
:102EF00080698007204602D0FFF7E7FF04E000F07A
:102F0000E5F8204600F011F9257720680169C943EA
:102F1000490717D4C168C943490713D46FF00401A6
:102F20000161022020772068806910F4407F2046EC
:102F300002D0FFF7CAFF04E000F0C8F8204600F016
:102F4000F4F8257720680169C943090716D4C168D8
:102F5000C943090712D46FF00801016104202077EA
:102F60002068C0698007204602D0FFF7AEFF04E06A
:102F700000F0ACF8204600F0D8F825772068016909
:102F8000C943C90617D4C168C943C90613D46FF031
:102F900010010161082020772068C06910F4407F8B
:102FA000204602D0FFF791FF04E000F08FF82046A2
:102FB00000F0BBF8257720680169C943C90708D12B
:102FC000C168C943C90704D1891E0161204600F0C8
:102FD000ADF820680169C943090609D4C168C9432D
:102FE000090605D46FF0800101612046FFF712FE4B
:102FF00020680169C943490609D4C168C943490623
:1030000005D46FF040010161204600F099F8206876
:103010000169C94389060BD4C168C943890607D42D
:103020006FF0200101612046BDE87040FFF7F3BD5D
:1030300070BD000000B585B00021009101910291A2
:10304000039100680B49884212D10B48816941F015
:10305000040181618069694600F0040004904FF426
:10306000407000900220019003900448FEF714FA8B
:1030700005B000BD002C01400010024000080140D6
:1030800010B5044690F83C0001280AD0012084F8CD
:103090003C0042B1042A0AD0082A0CD00C2A11D1D3
:1030A0000DE0022010BD206801F0CEFC0AE020688F
:1030B00001F0F2FC06E0206801F01AFD02E0206851
:1030C00001F042FD002084F83C0010BD704710B5AF
:1030D000040003D094F83D0010B107E0012010BDBA
:1030E000002084F83C00204600F01EF8022084F8FE
:1030F0003D00211D206801F05FFC012084F846009E
:1031000084F83E0084F83F0084F8400084F84100D1
:1031100084F8420084F8430084F8440084F84500B1
:1031200084F83D00002010BD7047704700680349D7
:10313000884201D1FFF766B87047000000080040E0
:103140007047704710B504460068C16821F490715B
:10315000C1602068416921F0010141612068416935
:103160004FF020024B064FF000010FD5436923F0CA
:1031700040034361606B48B108494163606BFEF7EF
:1031800019F848B1606B416B884705E0E18584F828
:103190003A202046FFF7D5FF002010BD8B4C0008D9
:1031A00010B504460068416994F83920C1F3C01194
:1031B000212A0BD151B1416921F080014161206B7D
:1031C00008B1FDF7D4FF204601F093FD2068416966
:1031D00094F83A20C1F38011222A0BD151B14169F0
:1031E00021F040014161606B08B1FDF7C0FF20464E
:1031F00001F071FD002010BD7047000070B502683D
:1032000004461068D168536910F00F0F52D003F0D4
:10321000010501F490762E435FD0C20705D0CA05A0
:1032200003D5E26B42F00102E263420705D5DA07FB
:1032300003D0E26B42F00202E263820705D5DA07AF
:1032400003D0E26B42F00402E263020707D501F00B
:1032500020022A4303D0E26B42F00802E263E26BF1
:10326000002A33D0800604D5880602D5204601F016
:1032700049FD20684069E16BC0F38010090700D464
:1032800028B3204601F027FD2068416949061AD578
:10329000416921F040014161606BA0B12D4941635A
:1032A000606BFDF787FF002810D0606B416BBDE8B5
:1032B00070400847830610D58B060ED52046BDE822
:1032C000704001F01FBD2046FFF796FF70BD2046FD
:1032D000FFF792FF0020E06370BD03062BD50B06BD
:1032E00029D594F839002128F6D1A068B0F5805F7F
:1032F00001D12069B0B1206A411C216221680078A7
:103300004860E08C401E0004000CE084E4D120689A
:10331000C16821F08001C1602068C16841F04001AE
:10332000C16070BD206A0088C0F308005060206A48
:10333000801C2062E5E74006F3D54806F1D5D16848
:10334000204621F04001D160202184F8391000F09E
:10335000B4F970BDEB4B000870B5040004D094F8CC
:103360003900002510B106E0012070BD84F8385006
:10337000204600F023F8242084F839002068C16832
:1033800021F40051C160204601F002FD206801696E
:1033900021F4904101612068416921F02A014161D5
:1033A0002068C16841F40051C160E563202084F8C1
:1033B000390084F83A00002070BD00002DE9F0418A
:1033C00086B0002400940194029403940646484F6A
:1033D0000368484802210322474DBB4259D1836903
:1033E00043F480438361836903F4804304938369D6
:1033F00043F0080383618069039200F008000490A1
:103400004020CDE9000169462846FEF745F84FF017
:103410008008CDE900844746694628460294FEF7B5
:103420003BF83648416841F0E06141F004014160F9
:10343000344D3348C5E90004C5E90247202007029E
:10344000EF612C61C5E905402846FDF7ADFF08B1E5
:10345000FDF7EAF875636E622A4D29484435143841
:1034600001C51020A5E81101264845F8104944304F
:103470006C61C5E90647FDF797FF08B1FDF7D4F881
:1034800035630022052125206E62FEF741FF2520CD
:1034900028E01D4EB34227D1C36943F48023C361A2
:1034A000C36903F480230493836943F008038361B1
:1034B0008069039200F0080004903015CDE9000106
:1034C00069462846FDF7E8FFF014CDE90004694697
:1034D00028460294FDF7E0FF002205212720FEF791
:1034E00017FF2720FEF706FF06B0BDE8F0810000B9
:1034F0000038014000100240000C01400000014073
:1035000058000240F004002000480040F8B504468E
:1035100090F83A0020283CD1C1B3BAB394F83800EF
:10352000012836D0012084F83800A162A285002548
:10353000E563222084F83A00636B17489862636B56
:103540001648D862636B16481863606B1346456370
:103550000846666B216802463046091DFDF752FF9A
:10356000206801684168009184F83850C16841F4CE
:103570008071C1602068416941F0010141612068AA
:10358000416941F0400141610020F8BDFFE70120A1
:10359000FBE70220F9E70000454C0008814C0008D9
:1035A000FB4B000890F83A30202B22D1F9B1F2B150
:1035B00090F83830012B1CD081628285C2850021B1
:1035C000C163222280F83A2080F838100168CA6866
:1035D00042F48072CA6001684A6942F001024A619D
:1035E0000068C16841F02001C160002070470120DF
:1035F00070470220704770477047000070B504465E
:1036000090F83900202830D169B362B394F83800BB
:1036100001282AD0012084F838002162A284E284A3
:103620000025E563212084F83900236B1048986257
:10363000236B1048D862236B0F481863206B134626
:1036400045632668206B321DFDF7DCFE21686FF0B4
:103650004000086084F838502068416941F08001DA
:103660004161002070BD012070BD022070BD0000CE
:103670009F4C0008CD4C0008FB4B000890F83930F7
:10368000202B18D1A9B1A2B190F83830012B12D05B
:1036900001628284C2840021C163212280F8392022
:1036A00080F838100068C16841F08001C1600020D6
:1036B0007047012070470220704710B501680A6802
:1036C000D243520608D46FF040020A6003F062F958
:1036D000BDE8104001F054BC10BD7047FEE700008B
:1036E0000148FDF7D7BF0000600200200148FEF747
:1036F00033B800006002002038B5406A002190F81D
:103700003D202B4B46F2A8141B68B3FBF4F3C3EB2C
:10371000C30303EB830300933BB15B1E0093036879
:103720001B689B0505D5009BF6E7036C43F020035F
:103730000364436B03B19962836B03B199620368BD
:103740001C6824F480641C604185436B03B1596399
:10375000836B03B1596303681C6824F001041C6087
:1037600090F83D402023602C0BD0282434EA02023C
:103770000FD080F83D3080F83E1000BFFEF71FF9F3
:1037800038BD80F83D3080F83E100164FDF780FFC1
:1037900038BD0268136843F00103136002681368C0
:1037A00043F480631360016380F83D40E6E7000066
:1037B0004001002010B5406A0021426B02B19162C5
:1037C000826B02B191620268136823F48063136014
:1037D0004185202280F83D2080F83E10016C41F0A8
:1037E00010010164FEF7EBF810BD2DE9F041446AC9
:1037F00094F83D2094F83E50E16A2068436823F431
:1038000040734360636B002003B19862A36B03B104
:103810009862212333EA02074FF022060CD036EAE1
:10382000020701D1202D07D094F83E20002A21D094
:10383000628D012A20D024E021684D6825F40065BE
:103840004D6060852820292A02D02A2A07D00CE062
:10385000236384F83D002046FEF7A3FC05E02663C1
:1038600084F83D002046FEF79BFC2068416841F447
:1038700040714160BDE8F0812268136823F48063E1
:1038800013602268536823F44073536011F5803F3E
:1038900006D0082904D0B1F12A4F01D0202904D143
:1038A00021680A6842F400720A6021684A6822F4BA
:1038B00080524A6021684A6822F400624A6060854A
:1038C000216C19B12046FEF77AF8D3E7202184F85D
:1038D0003D1094F83E1084F83E00402905D0122097
:1038E00020632046FEF735F9C4E720632046FEF743
:1038F000D9FBBFE770B5044690F83D0094F83E1040
:10390000102901D0402906D1222804D121680A6853
:1039100022F400620A60282131EA00024FF000051B
:103920004FF0200626D021684968090505D4602893
:1039300003D084F83D6084F83E50256320684168D8
:10394000090537D5416821F400614160606B3D494C
:1039500090F82120012A11D04163606BFDF72AFC09
:1039600038B32068016821F00101016084F83D60EE
:10397000606B1CE0256384F83D10DFE7A06B4163BA
:10398000A06BFDF717FCA0B120684169C943490647
:1039900005D40069616A0870606A401C6062206832
:1039A000016821F00101016084F83D60A06B416B6A
:1039B000884710E094F83D10602910D04169C94350
:1039C000490605D40069616A0870606A401C60623B
:1039D0002046FDF7F4FF206CC1071CD115E084F8E8
:1039E0003D6025644169C943490605D40069616A9F
:1039F0000870606A401C60622068016821F0010163
:103A000001602046FDF744FEE5E7810703D4410746
:103A100001D4000704D52068416821F4E0614160C9
:103A200094F83D00216C49070BD5282809D1064898
:103A3000E062256384F83D6084F83E502046FEF73E
:103A400087F870BDF93600080000FFFF01684A6979
:103A5000D24352050FD46FF480624A61002140F8CE
:103A6000301F202242738173026942F00402026116
:103A70000173012070470020704710B5C26A438D62
:103A80000168042B06D0438D032B08D0438D022BF5
:103A90001DD012E04A6822F480624A600CE04B6854
:103AA00023F480634B60042A06D0022A04D0016804
:103AB0000A6822F480620A6001680969426A11702A
:103AC000416A491C4162418D491E418510BD012A50
:103AD00030D0102A2ED0042A30D0022A2ED00A68E4
:103AE00042F400720A6001680969426A1170416A11
:103AF000491C4162428D521E4285026812690A7059
:103B0000416A491C4162418D491E418501684A68EC
:103B100022F440724A60202180F83D1090F83E2047
:103B20000021402A80F83E100CD012210163FEF7DC
:103B300010F810BD0A6822F48062D3E70A6842F4E4
:103B40008062CFE70163FEF7ADFA10BD38B590F89B
:103B50003D10222914D1418D032912D90168096928
:103B6000426A1170416A491C4162418D491E41857A
:103B7000418D032904D10068416821F480614160CE
:103B800038BDC26A022AFBD0012901D00029F7D131
:103B9000274946F2A81300220968B1FBF3F101EBB3
:103BA0008101009101682023009C641E009422D0B2
:103BB0000C68A405F8D40C6824F480640C600168D7
:103BC0004C6824F4E0644C6001680969446A21701F
:103BD000416A491C4162418D491E418580F83D3052
:103BE00090F83E1080F83E2040291DD0122101633C
:103BF000FDF7AFFF38BD046C44F0200404644C684A
:103C000024F4E0644C6001680969446A2170416AE7
:103C1000491C4162418D491E418580F83D3080F844
:103C20003E20FDF7CCFE38BD0263FEF73BFA38BDFF
:103C300040010020F8B50446C06A1E460D461746EE
:103C4000082807D0012805D010F5803F02D0206B4E
:103C5000122804D12068016841F480710160134684
:103C600000224FF001112046009600F01FFB40B1EA
:103C700020680068C00502D54FF40070206403205E
:103C8000F8BD2069B0F5804F0ED00620216800EA0B
:103C9000D51040F0F000086133463A460B49204603
:103CA00000F038FB78B902E005F0FE0000E0E8B271
:103CB00021680861054933463A46891F204600F0CD
:103CC00029FB0028DCD00120F8BD0000080001001D
:103CD00010B5C16A90F83D20212A0BD1428D52B116
:103CE000416A026809781161416A491C4162418D4B
:103CF000491E418510BD00222023082910D020290B
:103D00000ED011F5803F0BD001684C6824F4E064BC
:103D10004C601121016380F83E2080F83D300EE0B8
:103D200001684C6824F4E0644C6001680C6844F459
:103D300000740C60026380F83D3080F83E20FDF78F
:103D400009FF10BD10B590F83D1090F83E30C26AE2
:103D5000048DB4B1212903D0402B11D122290FD1D8
:103D6000418DE1B390F83E10402942D0416A02688B
:103D700009781161416A491C4162418D491E4185A2
:103D800010BD2129E8D120230021082A13D0202AA0
:103D900011D012F5803F0ED00268546824F4E0641C
:103DA00054601122026380F83E1080F83D3000BF5D
:103DB000FDF7D0FE10BD0268546824F4E06454603E
:103DC0000268146844F400741460016380F83D30A4
:103DD00090F83E2080F83E10402AE9D100E002E051
:103DE000FEF761F910BD0068416821F4806141600F
:103DF00010BDBDE8104000F0F3B8000078B590F8B1
:103E00003E50C26A046B90F83D6000230168222E88
:103E100073D1066D0EB9402D6FD0056D1DB90569C2
:103E2000B5F5404F1BD0458D95B3468D484D012EBD
:103E300020D0448D022C4DD00C6844F480640C607A
:103E400001684C68240579D5AA4273D0012A71D043
:103E5000082A6FD0102A6DD0202A6BD06EE04A69F4
:103E60008A6900920A6842F480720A60016D491CF6
:103E7000016578BDAA4214D10A6822F480620A6002
:103E800001684A68120504D50A6822F4806217E0C6
:103E9000FFE74A698A6900920A6842F400720A6080
:103EA00050E0082A10D0202A0ED0122C0AD0042A62
:103EB00003D0022A01D0102AE6D10A6842F48062B7
:103EC0000A603BE0012ADFD00A6822F480620A60BF
:103ED0000168DEE7042A11D0022A0FD0102A0DD083
:103EE0000C6844F400640C6001684C698C690094AF
:103EF0000C6824F480640C6008E025E00C6844F44D
:103F000080640C6001684C698969009101684C68A3
:103F1000240517D5AA4207D0012A05D0082A03D0C4
:103F2000102A01D0202A0DD14A6842F480524A60FA
:103F300008E0FFE74A6842F480524A6001684A6933
:103F400089690091036578BD48698869009078BDEA
:103F50000000FFFF90F83E10402910D00169B1F534
:103F6000804F19D0016DA9B3016D012910D1416CA9
:103F70005FF0F10201F4407142EAD11106E0016DF7
:103F80000029416C05D0C9B241F00101006801610E
:103F9000704701F0FE01F9E790F83D102129416CCE
:103FA00009D0C9B241F0010102681161416B29B128
:103FB000896A49B902E001F0FE01F5E7816B002949
:103FC000E6D0896A0029E3D00068416841F40061C5
:103FD00041607047FFE7416CF02201F44071CBE78C
:103FE00010B590F83D10026D22B3026D012A2FD05A
:103FF000026D022A1DD1222931D0428D0AB1212918
:1040000033D0428D002A14D1212912D101684A6887
:1040100022F4E0624A6001680A6842F400720A60B1
:1040200000210163202280F83D2080F83E10FEF739
:104030003AF810BDC16C0129816C02D0C1F307218F
:1040400008E00268C9B21161016D891C016510BDEB
:10405000816CC9B202681161016D491CF6E7006804
:10406000016841F48071016010BD416A02680978FD
:104070001161416A491C4162418D491E418510BD53
:104080002DE9F04190F83D40C26A002320261C4FE4
:1040900001686FF48065082A01D0202A01D1282CFC
:1040A00004D0212C16D04D61BDE8F081C7624A686A
:1040B00022F4E0624A6001684D6101680A6822F4F6
:1040C00080620A60036380F83D6080F83E30FDF74F
:1040D0003FFDE9E7C7622122026380F83D6080F876
:1040E0003E304A6822F4E0624A6001684D6101682E
:1040F0000A6822F480620A60FEF753F8D4E70000F1
:104100000000FFFFF8B590F83D6004460068416884
:1041100021F4E06141602068002541690091016857
:1041200041F0010101602068016821F480610160B3
:1041300020684168090520D5474F222E48D02A2EF5
:1041400046D0616B096849686185618D19B1216C40
:1041500041F004012164416821F400614160606B19
:10416000FDF774F8012808D0606B4763606BFDF7BA
:1041700021F810B1606B416B8847608D08B32068EF
:104180004169C943490708D40069616A0870606AD7
:10419000401C6062608D401E608520684169C94393
:1041A000490608D40069616A0870606A401C606250
:1041B000608D401E6085608D18B1206C40F0040059
:1041C0002064206C00B32046BDE8F840FFF792BBA6
:1041D000A16B096849686185618D19B1216C41F055
:1041E00004012164416821F400614160A06BFDF786
:1041F0002DF80128C1D0A06B4763A06BFCF7DAFF54
:104200000028BAD0A06BB6E72A2E06D12563282055
:1042100084F83D002046FDF7C3FF94F83D102020B0
:1042200028290DD0216B222901D0222E07D1256308
:1042300084F83D0084F83E502046FDF7B1FFF8BDFC
:104240000649E162256384F83D0084F83E5020462B
:10425000FDF77EFCF8BD0000F93600080000FFFF06
:1042600070B516460D4604460DE02046FFF7EEFBFE
:1042700008B1012070BD681C05D0FDF703FA801B52
:10428000A84207D835B120684069C0434007ECD444
:10429000002070BD002044F8300F20216173A0730E
:1042A000216941F0200121612073E2E72DE9F04707
:1042B0001E4690460D460446C1F30747DDF82090A0
:1042C00008E0701C06D0FDF7DDF9A0EB0900B04254
:1042D0000FD876B12068012F18D0806925EA000038
:1042E0000004000C14D000214145EAD00020BDE8B4
:1042F000F087002044F8300F20216173A0732169FA
:1043000041F02001216120730120F0E74069E5E7D9
:104310000121E9E72DE9F0479A4691460E46044609
:1043200000254FF02008C1F3074725E020684069C9
:10433000C043400514D42068016841F40071016055
:1043400021686FF480604861256384F83D8084F8BB
:104350003E50206C40F00400206484F83C501FE084
:10436000B9F1FF3F08D0FDF78DF9A0EB0A014945EF
:104370000CD8B9F1000F09D02068012F13D0806943
:1043800026EA00000004000C0BD0CFE744F8305FB1
:1043900084F80D80A573206940F02000206125730A
:1043A0000120BDE8F0874069EAE770B516460D4682
:1043B00004460DE02046FFF749FB08B1012070BD1F
:1043C000681C05D0FDF75EF9801BA84207D835B1FF
:1043D00020684069C0430006ECD4002070BD002076
:1043E00044F8300F20216173A073216941F020014E
:1043F00021612073E2E700000148FDF7FCBE0000E8
:104400003C030020FEB500242048009401941E497E
:1044100002940160891581600125057304750426E5
:1044200006614FF460214460C161FCF7F5F908B101
:10443000FCF7FAF8CDE900450324694613480294D5
:10444000FCF7F6F808B1FCF7EFF80095022569468D
:104450000E480195FCF7ECF808B1FCF7E5F8CDE95A
:10446000005469460948FCF7E3F808B1FCF7DCF8AA
:10447000CDE9004669460548FCF7DAF8002801D086
:10448000FCF7D2F8FEBD000000240140C40100206A
:104490000F4810B50D4901601221416000214FF411
:1044A00000328160C0E903124FF44012426101768C
:1044B00041768176C17601774177FCF716FD0028B9
:1044C00003D0BDE81040FCF7AFB810BD0064004059
:1044D00038020020214808B5416941F001014161DD
:1044E0004069002200F00100009005210B20FDF73B
:1044F0000FFF0B20FDF7FEFE002205210C20FDF72B
:1045000007FF0C20FDF7F6FE002205210D20FDF728
:10451000FFFE0D20FDF7EEFE002205210E20FDF727
:10452000F7FE0E20FDF7E6FE002205210F20FDF725
:10453000EFFE0F20FDF7DEFE002205211020FDF723
:10454000E7FE1020FDF7D6FE002205211120FDF721
:10455000DFFEBDE808401120FDF7CCBE0010024090
:1045600010B50B4B002201210A4801F07BFA0A4CDE
:10457000074A0021A060483A084801F021FA044A9D
:104580002060243A0021064801F01AFA606010BD4C
:10459000307F000899050008000000201D48000831
:1045A000514800080D4808B5816941F0200181613A
:1045B000816901F020010091816941F0040181616C
:1045C000816901F004010091816941F00801816174
:1045D000806900F00800009008BD00000010024053
:1045E0000D4810B50B4901600C49416000214FF4A2
:1045F00080428160C0E9031241618161C161016251
:10460000FDF7E2F9002803D0BDE81040FCF70CB834
:1046100010BD00000054004060020020801A060017
:10462000094810B5074901600421416040F6FF7157
:104630008160FDF7B7FD002803D0BDE81040FBF70F
:10464000F3BF10BD003000403C030020104810B5FF
:104650000E4901604FF48271416000218160C160A8
:104660004FF400720161C0E905120822C0E9072178
:10467000416281620A21C162FEF700FA002803D07C
:10468000BDE81040FBF7D0BF10BD00000030014076
:104690004803002030B595B000240F941094119475
:1046A000129413941C2168461494FBF7A2FD202158
:1046B00007A8FBF79EFD344D324828601220C5E95B
:1046C00001044FF47A60C5E903048020C5E9054080
:1046D0002846FEF7FFFA08B1FBF7A6FF4FF480501B
:1046E0000F900FA92848FEF785FB08B1FBF79CFF48
:1046F0002548FEF7ECFC08B1FBF796FF139413A9CD
:1047000021481494FEF7B2FA08B1FBF78DFF4FF47D
:10471000FA60CDE9004002940394049405940022C9
:10472000694619480694FEF7ABFC08B1FBF77CFF1D
:104730002868816941F0080181614FF47A70019025
:10474000042269461048FEF79BFC08B1FBF76CFF9A
:104750002868816941F40061816107940894099493
:104760004FF400500A94CDE90B4007A906480E9477
:10477000FEF752FA08B1FBF757FF0348FEF75AFC61
:1047800015B030BD002C0140280400200C4810B5A5
:104790000A4901604FF4E1314160002181600C223F
:1047A000C160C0E904128161C161FEF7D5FD002836
:1047B00003D0BDE81040FBF737BF10BD0038014003
:1047C000700400200C4810B50A4901604FF4E13133
:1047D0004160002181600C22C160C0E90412816146
:1047E000C161FEF7B9FD002803D0BDE81040FBF71A
:1047F0001BBF10BD00480040B0040020FEE7FEE7EC
:104800000148FEF7CBB800004803002010B5406A0D
:104810000021C187C186FEF7BFF810BD08B503F0BF
:104820004DF9009009484FF47A71806801F05CF905
:10483000002001F0D5FF4FF4487400BFFFF7DCFD06
:104840002146684602F062FAF8E700000000002006
:10485000002002F0B9F800EB800101EBC00009492B
:10486000074D01EB80040021286802F0CFFE0128EB
:1048700002D1E06801F0E4FE012001F04BF8F2E71C
:10488000DC0000202400002010B5502080F31188A7
:10489000BFF34F8FBFF36F8F03F016F918B10449C0
:1048A0004FF080500860002080F3118810BD000098
:1048B00004ED00E030B593B028216846FBF799FC81
:1048C00014210AA8FBF795FC00250F95092001216A
:1048D00010950090119512954FF480300491069137
:1048E000CDE901050224CDE907404FF4E01009901D
:1048F0006846FDF7C1FE08B172B6FEE70AA90F20AF
:1049000081E831004FF48060CDE90D0502210AA84D
:10491000FDF7A6FD08B172B6FEE74FF40040119016
:104920000F940FA8FDF726FD002801D072B6FEE710
:1049300013B030BD0D48016841F0010101604168CC
:104940000B4A1140416001680A4A11400160016848
:1049500021F480210160416821F4FE0141604FF49F
:104960001F0181600449C0030860704700100240C5
:104970000000FFF8FFFFF6FE08ED00E00148FEF73B
:10498000A5BA0000280400200148FEF79FBA0000E5
:10499000280400200148FEF799BA000028040020EE
:1049A0000148FEF793BA0000280400200148FEF7F2
:1049B0008DBA000078050020F0B50268164B174C40
:1049C000174D4FF08047984205D0B84203D0A0421F
:1049D00001D0A84203D122F070064A6832439842BF
:1049E00005D0B84203D0A04201D0A84203D122F49E
:1049F0004074CA6822434C6922F08002224302605C
:104A00008A68C2620A688262984201D109690163B8
:104A100001214161F0BD0000002C01400004004074
:104A20000008004010B5846842EA032224F47F4461
:104A30000A432243826010BD826822F070020A435A
:104A400042F007018160704730B5026A22F001022E
:104A50000262026A4368846924F073050C682C437F
:104A600022F002058A682A430A4DA8420BD122F09F
:104A70000805CA6823F440732A434D6922F00402F2
:104A80001D438B692B434360846149684163026223
:104A900030BD0000002C014030B5026A22F0100247
:104AA0000262026A436884690D6824F4E64444EAB9
:104AB00005248D6822F0200242EA05120B4DA8421F
:104AC0000ED1CD6822F0800242EA05124D6923F42E
:104AD000406343EA85038D6922F0400243EA85037F
:104AE0004360846149688163026230BD002C0140EB
:104AF00030B5026A22F480720262036A4268C469B5
:104B000023F4007324F073050C682C438D6843EA8A
:104B100005230C4DA8420ED1CD6823F4006343EA6F
:104B200005234D6922F4405242EA05128D6923F4AF
:104B3000806342EA05124260C4614968C16303624E
:104B400030BD0000002C014030B5026A22F48052D2
:104B50000262046A4268C3690D6823F4E64343EACB
:104B600005238D6824F4005444EA0534064DA84218
:104B700004D14D6922F4804242EA85124260C36149
:104B800049680164046230BD002C014010B5036A1D
:104B9000046A24F001040462846924F0F00444EA05
:104BA000021423F00A020A438461026210BD10B5A8
:104BB000036A23F0100303628369046A23F47043D9
:104BC00043EA023224F0A00343EA01118261016248
:104BD00010BD10B501F078FC002805D0D0E9002107
:104BE000BDE810400846104710BD10B5406A0021CE
:104BF000C185C184FEF700FB10BD70B5446A206812
:104C0000406994F83910C0F3C0100025212904D15F
:104C100018B1E584204600F06CF82068406994F8EB
:104C20003A10C0F38010222904D118B1E58520463E
:104C300000F051F8E06B40F01000E0632046FEF712
:104C4000DBFA70BD10B50146406A0968096889063B
:104C500013D40021C1850168CA6822F48072CA6039
:104C600001684A6922F001024A6101684A6922F03A
:104C700040024A61202180F83A10FEF7BCFC10BDCA
:104C800010B5406AFEF7B8FC10BD10B5406A0021AF
:104C9000C185202180F83A10FEF753FA10BD10B5F7
:104CA0000146406A0968096889060CD40021C1845C
:104CB00001684A6922F080024A610068C16841F0D7
:104CC0004001C16010BDFEF7F8FC10BD10B5406A90
:104CD000FEF703FD10BD0168CA6822F49072CA6035
:104CE00001684A6922F001024A61202180F83A10E5
:104CF00070470168CA6822F0C002CA60202180F8AB
:104D00003910704710B590F83A10222901D00220CE
:104D100010BD82684FF480539A4201D1016921B1DC
:104D2000816A9A421BD04AB10AE00268816A5268DD
:104D3000C2F308020A80816A891C08E0026972B124
:104D40000268526802F07F020A70816A491C81621F
:104D5000C18D491E0904090CC18503D016E0026803
:104D60005268F1E70168CA6822F02002CA6001684F
:104D7000CA6822F48072CA6001684A6922F001029E
:104D80004A61202180F83A10FEF735FC002010BD62
:104D900070B5044600680169E26821F4405111438E
:104DA00001612169A0680843616908432168CA68F4
:104DB00041F20C639A430243CA6020684169A269C8
:104DC00021F44071114341611E492068884202D19B
:104DD000FDF70CFC01E0FDF7F9FB00EBC00101EB76
:104DE0000012606864218000B2FBF0F3B3FBF1F3C2
:104DF0006FF018067343B2FBF0F5B2FBF0F605EB6B
:104E00008305322303EB0515B5FBF1F5B6FBF1F68F
:104E100005F0F00505EB0615B2FBF0F6B2FBF0F07D
:104E2000B0FBF1F06FF01802504306EB800003EB8B
:104E30000010B0FBF1F0216800F00F0028448860FA
:104E400070BD000000380140054810B5026800211F
:104E5000044800F0FFFCBDE810400248FEF7CEB960
:104E6000DC0000207004002010B500221146044828
:104E700000F0F0FCBDE810400148FEF7BFB90000AB
:104E8000B00400200148FBF732BF000038020020C8
:104E90000148FBF72CBF000038020020FEE709079D
:104EA000090E002804DB00F1E02080F800147047B0
:104EB00000F00F0000F1E02080F8141D704702E0C0
:104EC00008C8121F08C1002AFAD170477047002095
:104ED00001E001C1121F002AFBD170470146074AB9
:104EE000002000BF02EB00135B7B8B4204D0401C10
:104EF00010F0FF00F6D0FF20704700000C000020EB
:104F00002DE9F04389460024511C4D0832E013B1CD
:104F1000815C994232D0815CA1F13006092E01D822
:104F2000F1B20BE0A1F14106052E01D8373904E0BA
:104F3000A1F16106052E21D85739C9B224B909EB70
:104F40000506002706F8017CA7004FF00F0809EBC3
:104F5000050C08FA07F81CF8016CB94026EA0806A7
:104F60000E43641CE4B20CF8016C022C02D1002444
:104F70006D1EEDB2521E52B2002AC8DABDE8F083AF
:104F800010B501F021FDFF281FD000EB800101EBDF
:104F9000C0010E4800EB8104217F481CC0B220777D
:104FA000C82912D1E17EB1FBF0F0FBF7D4F9084932
:104FB0006062FBF795F9074A0021904201DD6177B5
:104FC00001E0012060772177E17610BD2400002008
:104FD0000000C8420000484200B58BB0002001210B
:104FE000CDE9060103900090019002900490089191
:104FF000059069460548FBF787FD02210348FBF74A
:1050000071FD0248FCF780F80BB000BD38020020AB
:105010000146074A002000BF00EB400352F833303E
:105020008B4204D0401C10F0FF00F5D0FF207047E9
:10503000B400002010B501F06BFA0020FFF7CCFFA0
:10504000BDE8104000F09ABB10B501F0E9FF044C38
:10505000A06301F0E5FFE06301F0E2FF206410BD12
:10506000DC00002030B500232BE0002442F8234070
:1050700010F83340250604D500EBC30464682468A7
:105080001BE004F07F04072C19D2DFE804F01805B8
:105090000C0404130400EFE700EBC30464682478F5
:1050A00002F823400BE000EBC3046468248822F874
:1050B000234004E000EBC304646842F823405B1C17
:1050C000DBB28B42D1D330BD10B50478944203D00B
:1050D0000CB1884201D1002010BD1844F5E72DE93C
:1050E000F04104461F460E4615461046FBF78CF865
:1050F000C2B20020217807E02B5C994202D1204601
:10510000BDE8F081401CC0B29042F5D309B1B44271
:1051100001D10020F4E73C44EBE770B504460D46AE
:1051200016461046FBF770F8C1B215B1281B88422D
:1051300005DB207818B125B1281B884201DA002050
:1051400070BD002005E0225C335C9A4203D1401C14
:10515000C0B28842F7D3884201D1204670BD0C44CA
:10516000E7E7000010B5002821D0114B0022001FF6
:10517000196803E0814203D80A4649680029F9D139
:1051800052B11368841A9C4204D10068184410601C
:10519000104602E0506000E0186039B102680B1A56
:1051A000934203D10B681A4402604968416010BD04
:1051B000BC01002038B501B969460023012441F241
:1051C000E102072805D2DFE800F00406080B0B0611
:1051D0000B000B8005E00C8003E01520088000E048
:1051E0000A80088838BD00002DE9F0410E460446CB
:1051F000012328220021FFF767FF4FF0FF373B46CE
:105200002022002101F0E1FA05463B460AA2214690
:10521000FFF765FF00B1441C281BC7B23A46214680
:105220003046FAF7CDFF0020F055A54201D1BDE888
:10523000F0812046FBE70000202A0000F0B50024A2
:105240000F4605460C70287830B1282807D02C2846
:1052500013D0292811D02CE06CB90020F0BD641CBB
:1052600064B2012C25D1012320220021681C01F009
:10527000ACFA06001DD10120F0BD012C14D1A31EF3
:1052800020220021284601F0A0FAB04202D9387845
:10529000401C387028782C2806D1012320220021B8
:1052A000681C01F092FA06462878292801D1641E6C
:1052B00064B26D1CC7E738B5054609B10C4600E07D
:1052C0006C46012320782A2220F0800020700021E3
:1052D0002846FFF7F9FE18B1207840F080002070D2
:1052E0000021284601F0E6FA217860F306012170DA
:1052F000084638BD2DE9F843054618781E46C7B262
:105300008846144638064FF0010910D5012332A211
:1053100000212846FFF7E3FE30B101232EA2002131
:10532000401CFFF7DCFE53E00020707001E083F8C2
:10533000019005EB080129A22846FFF7EEFEF8B11F
:10534000A8F10201A81CCBB207F07F0240F2D241C3
:10535000052A3FD2DFE802F03C03090F0F00214687
:10536000CDF8009000F0CEF819E00C210091214614
:1053700000F0C8F81CE00091214600F0C3F825E0D9
:1053800007F07F00052825D2DFE800F022030C1487
:105390001A0000224146284601F07AFA2070601C6B
:1053A000BDE8F88300224146284601F071FA2080CA
:1053B000A01CF5E700224146284601F069FA04E006
:1053C00000224146284601F01DFA2060201DE7E733
:1053D0002046E5E70020E3E72227000030780000C0
:1053E0007CB500220A700C4601232022002101F026
:1053F000ECF90646012312A20021FFF770FE0546D4
:10540000821B31466846FAF7DBFE0021684601F050
:1054100051FA2278012360F3060222702022002133
:10542000284601F0D2F901782A2908D121780123F0
:1054300041F0800121702022002101F0C6F97CBDDD
:10544000202A00002DE9F04F8DB01F4691468A4674
:1054500083460124169E34E06A462146584601F0F0
:1054600071F905460CAA2146504601F06BF9014638
:105470006DB361B39DF830204AB39DF8000030B39E
:1054800009A8FAF79DFE9DF80020294604A8FAF71E
:1054900097FE07EBC408A8F10805294609A8FFF7FD
:1054A0000AFFFF2813D048F8049C2B464A469DF873
:1054B000001004A8FFF71EFF5FEA000907D0641C74
:1054C000E4B2B442C8D948460DB0BDE8F08F002020
:1054D000FAE738B501B969460023042201240728F8
:1054E00005D2DFE800F00406080B0B060B000B707A
:1054F00005E00C7003E00220087000E00A700878F4
:1055000038BD00002DE9FF4F81B01E460E9D1446A8
:105510008B462DB900211046FFF74CFE050064D0E4
:1055200000212046FFF7D5FF044600F0AFF8804683
:10553000204600F0ABF88146002711E001210A2047
:1055400000F008F9B5FBF0F100FB115109F8071064
:1055500001210A2000F0FEF8B5FBF0F57F1CFFB238
:10556000A742EBD300256042CDF80000B6EB440F14
:1055700001DAF7B201E06006070E009805FB04BAF5
:1055800006EB400006B221464046FAF732FE002004
:10559000B7EB440F03D0781CA4EB5000C0B208EB6B
:1055A0000001019A05FB04F002EB400000233A469B
:1055B000FFF7A6FC0020A8F1010106E019F8002081
:1055C000535C0AF80030401CC0B2A042F6D3002E53
:1055D00002DD6D1CEDB2C9E74846FFF7C3FD05B01B
:1055E0004046BDE8F04FFFF7BDBD05B0BDE8F08F08
:1055F0000146074A002000BF00EB800352F8333019
:105600008B4204D0401C10F0FF00F5D0FF20704703
:105610008C00002010B503460A4A002000EB8004ED
:1056200002EBC404A47C9C4205D100EB800352F839
:1056300033200A6010BD401C10F0FF00EED0FF20A8
:1056400010BD00008C000020FCF7E4FDFFF732F9EC
:10565000FEF7A8FFFEF73EFFFEF71AFFFEF7E0FF9A
:10566000FFF718F8FFF792F8FEF7BAFFFEF7EEFF24
:10567000FEF7C8FEFFF7A6F8FFF7DCFC00F064F9C0
:10568000FEF76EFF00F07CF9FEE70000F0B50B308E
:10569000154D20F007010024144A0FE003688B42E7
:1056A0000BD38B4205D95E1A43184768C3E90067DC
:1056B00000E04368136002C004E0021D1068002887
:1056C000ECD12046002802D1286808B10020F0BDA6
:1056D000064A07481060074A121A22F00702C0E97A
:1056E000002401202860D7E7C0010020BC01002071
:1056F000FC330020F83500202DE9F041144E86B02F
:105700000F468046002400BF06EB0415A86848B980
:1057100069466868FFF768FD78B1A8606846FAF7DF
:1057200073FD28734046FAF76FFD2A7B904204D13F
:105730004146A868FAF76FFD38B1641C14F0FF0405
:10574000E2D0012006B0BDE8F0813C700020F9E70E
:105750002401002010B5044659B1012908D0002CBD
:1057600006D0012904D9491EC9B2FFF7F3FF6043EF
:1057700010BD002CFCD0012010BD000070B5002031
:1057800000F026F8002001F01FF9FF281CD000EBE4
:1057900080010E4C01EBC00004EB80000125817FED
:1057A00001B94577022000F013F8022001F00CF94E
:1057B000FF2809D000EB800101EBC00004EB800062
:1057C000817F002900D1457770BD000024000020B2
:1057D00038B501F0F9F8FF2814D000EB800101EB97
:1057E000C0001B4901EB8001CC6A086850B1026817
:1057F000136853680093D36843F01003D360426B7F
:1058000012B106E0012038BD0268D36843F02003DE
:10581000D360026B22B90268D36843F04003D360BF
:105820000268D36843F40053D360426B002A0A7CB9
:10583000C96802D0FDF76AFE01E0FDF7B3FE24B1AE
:10584000A279A1882068FBF717FF002038BD00006F
:10585000240000202DE9FC4116460F46044601F0C5
:1058600085F8FF284DD021680968C943C90648D486
:105870000021009121680A68496801912349626BFF
:105880002AB1126894F82C3052689A1A03E094F8FE
:105890002C20E38DD21A00EB800303EBC00301EB55
:1058A00083035A7400EB800202EBC00001EB800519
:1058B000687CF0B1606B0028204602D0FDF770FCD8
:1058C00001E0FDF73FFC2FB16A7C6B463846E96882
:1058D00001F081FF6EB16946304601F0ADFD0098E0
:1058E00038B10B494FF080500860BFF34F8FBFF3C2
:1058F0006F8F606B2A7C0028E968204603D0FDF793
:1059000005FEBDE8FC81FDF74DFEFAE7240000200E
:1059100004ED00E010B5EFF3058149B9EFF3108114
:1059200031B908490968022905D1EFF3118111B194
:105930006FF0050403E0002408B101F0C1F920462E
:1059400010BD000094010020EFF3058058B9EFF37B
:10595000108040B909490868022801D030B109E037
:10596000EFF3118030B16FF005007047012008603F
:10597000002070474FF0FF30704700009401002076
:1059800010B5EFF3058060B9EFF3108048B90B490B
:105990000868022802D0012806D00BE0EFF311803E
:1059A00040B16FF0050010BD0220086001F07EFAE2
:1059B000002010BD4FF0FF3010BD0000940100200A
:1059C000F0B585B04FEA01034FF00004EFF3058115
:1059D0000394A1BBEFF3108189BB21490968022917
:1059E00002D1EFF3118151BB48B3802618218DF805
:1059F000104004AD42B3176807B13D4697691FB127
:105A000039467F1E382F02D21779FF0702D00020B7
:105A100005B0F0BD576907B1BE08D2F808C0BCF1A7
:105A2000000F0DD0D4685C2C18D312693AB137B18D
:105A30008DE806103246294601F08FFF03900DE0F5
:105A4000D7685FB912694AB903AACDE90012B2B2A8
:105A5000294601F055FF012800D003940398D7E7A9
:105A6000940100202DE9FC411C4617468846064655
:105A70004FF00005EFF3058078BBEFF3108060BBBB
:105A800017480068022802D1EFF3118028BB26B323
:105A9000082000F0A1FC03001FD0B8F1000FC3E9FB
:105AA000006711D001220F4E00208CB1216801B196
:105AB0000846A16851B1E468302C0ED3CDE90061ED
:105AC000012102F095F907E00022ECE7E16821B935
:105AD0000121009602F072F905462846BDE8FC81D6
